{
    "contractName": "DocumentSharing",
    "abi": [
        {
            "anonymous": false,
            "inputs": [
                {
                    "indexed": true,
                    "internalType": "bytes32",
                    "name": "docId",
                    "type": "bytes32"
                },
                {
                    "indexed": true,
                    "internalType": "address",
                    "name": "recipient",
                    "type": "address"
                }
            ],
            "name": "AccessRevoked",
            "type": "event"
        },
        {
            "anonymous": false,
            "inputs": [
                {
                    "indexed": true,
                    "internalType": "bytes32",
                    "name": "docId",
                    "type": "bytes32"
                }
            ],
            "name": "DocumentDeleted",
            "type": "event"
        },
        {
            "anonymous": false,
            "inputs": [
                {
                    "indexed": true,
                    "internalType": "bytes32",
                    "name": "docId",
                    "type": "bytes32"
                },
                {
                    "indexed": true,
                    "internalType": "address",
                    "name": "from",
                    "type": "address"
                },
                {
                    "indexed": true,
                    "internalType": "address",
                    "name": "to",
                    "type": "address"
                }
            ],
            "name": "DocumentShared",
            "type": "event"
        },
        {
            "anonymous": false,
            "inputs": [
                {
                    "indexed": true,
                    "internalType": "bytes32",
                    "name": "docId",
                    "type": "bytes32"
                },
                {
                    "indexed": false,
                    "internalType": "string",
                    "name": "name",
                    "type": "string"
                },
                {
                    "indexed": false,
                    "internalType": "string",
                    "name": "ipfsHash",
                    "type": "string"
                },
                {
                    "indexed": true,
                    "internalType": "address",
                    "name": "owner",
                    "type": "address"
                },
                {
                    "indexed": false,
                    "internalType": "uint256",
                    "name": "timestamp",
                    "type": "uint256"
                }
            ],
            "name": "DocumentUploaded",
            "type": "event"
        },
        {
            "anonymous": false,
            "inputs": [
                {
                    "indexed": true,
                    "internalType": "bytes32",
                    "name": "docId",
                    "type": "bytes32"
                },
                {
                    "indexed": true,
                    "internalType": "address",
                    "name": "viewer",
                    "type": "address"
                },
                {
                    "indexed": false,
                    "internalType": "uint256",
                    "name": "timestamp",
                    "type": "uint256"
                }
            ],
            "name": "DocumentViewed",
            "type": "event"
        },
        {
            "anonymous": false,
            "inputs": [
                {
                    "indexed": true,
                    "internalType": "bytes32",
                    "name": "docId",
                    "type": "bytes32"
                },
                {
                    "indexed": true,
                    "internalType": "address",
                    "name": "previousOwner",
                    "type": "address"
                },
                {
                    "indexed": true,
                    "internalType": "address",
                    "name": "newOwner",
                    "type": "address"
                }
            ],
            "name": "OwnershipTransferred",
            "type": "event"
        },
        {
            "inputs": [
                {
                    "internalType": "bytes32",
                    "name": "docId",
                    "type": "bytes32"
                },
                {
                    "internalType": "string[]",
                    "name": "newTags",
                    "type": "string[]"
                }
            ],
            "name": "addTags",
            "outputs": [],
            "stateMutability": "nonpayable",
            "type": "function"
        },
        {
            "inputs": [
                {
                    "internalType": "bytes32",
                    "name": "docId",
                    "type": "bytes32"
                }
            ],
            "name": "deleteDocument",
            "outputs": [],
            "stateMutability": "nonpayable",
            "type": "function"
        },
        {
            "inputs": [
                {
                    "internalType": "bytes32",
                    "name": "docId",
                    "type": "bytes32"
                }
            ],
            "name": "getDocument",
            "outputs": [
                {
                    "internalType": "string",
                    "name": "name",
                    "type": "string"
                },
                {
                    "internalType": "string",
                    "name": "ipfsHash",
                    "type": "string"
                },
                {
                    "internalType": "address",
                    "name": "owner",
                    "type": "address"
                },
                {
                    "internalType": "address[]",
                    "name": "sharedWithArray",
                    "type": "address[]"
                },
                {
                    "internalType": "uint256",
                    "name": "timestamp",
                    "type": "uint256"
                }
            ],
            "stateMutability": "view",
            "type": "function"
        },
        {
            "inputs": [
                {
                    "internalType": "address",
                    "name": "owner",
                    "type": "address"
                }
            ],
            "name": "getDocumentsByOwner",
            "outputs": [
                {
                    "internalType": "bytes32[]",
                    "name": "",
                    "type": "bytes32[]"
                }
            ],
            "stateMutability": "view",
            "type": "function"
        },
        {
            "inputs": [
                {
                    "internalType": "bytes32",
                    "name": "docId",
                    "type": "bytes32"
                },
                {
                    "internalType": "address",
                    "name": "user",
                    "type": "address"
                }
            ],
            "name": "hasAccess",
            "outputs": [
                {
                    "internalType": "bool",
                    "name": "",
                    "type": "bool"
                }
            ],
            "stateMutability": "view",
            "type": "function"
        },
        {
            "inputs": [
                {
                    "internalType": "string",
                    "name": "tag",
                    "type": "string"
                }
            ],
            "name": "searchByTag",
            "outputs": [
                {
                    "internalType": "bytes32[]",
                    "name": "docIds",
                    "type": "bytes32[]"
                }
            ],
            "stateMutability": "view",
            "type": "function"
        },
        {
            "inputs": [
                {
                    "internalType": "bytes32",
                    "name": "docId",
                    "type": "bytes32"
                },
                {
                    "internalType": "address[]",
                    "name": "recipients",
                    "type": "address[]"
                }
            ],
            "name": "shareDocumentBatch",
            "outputs": [],
            "stateMutability": "nonpayable",
            "type": "function"
        },
        {
            "inputs": [
                {
                    "internalType": "string",
                    "name": "name",
                    "type": "string"
                },
                {
                    "internalType": "string",
                    "name": "ipfsHash",
                    "type": "string"
                }
            ],
            "name": "uploadDocument",
            "outputs": [],
            "stateMutability": "nonpayable",
            "type": "function"
        }
    ],
    "bytecode": "608080604052346015576110bf908161001a8239f35b5f80fdfe60806040526004361015610011575f80fd5b5f3560e01c80630af20d1a14610b7a578063207126db146109825780634464fe33146107375780636d2c16bc146104995780637ddfc7d41461041357806383177db3146103d7578063b10d6b411461027f5763db736b7014610071575f80fd5b3461027b57602036600319011261027b576004355f818152602081905260409020600201546001600160a01b0316330361022757805f525f602052600660405f206100bb8161103b565b6100c76001820161103b565b5f60028201556004810180545f82558061020d575b50505f6005820155018054905f8155816101e8575b5050335f52600160205260405f205f5b8154808210156101e057836101168385610df6565b90549060031b1c1461012b5750600101610101565b5f1981019081116101cc5761015461014661016a9285610df6565b90549060031b1c9284610df6565b819391549060031b91821b915f19901b19161790565b9055805480156101b8575f1901906101828282610df6565b8154905f199060031b1b19169055555b7f91f2d4a64ed6f16c6791d415c59ac18af9356ab2eaf9595c8145c06dd938b0665f80a2005b634e487b7160e01b5f52603160045260245ffd5b634e487b7160e01b5f52601160045260245ffd5b505050610192565b5f5260205f20908101905b818110156100f1578061020760019261103b565b016101f3565b610220915f5260205f2090810190610e43565b5f806100dc565b60405162461bcd60e51b815260206004820152602660248201527f4f6e6c7920746865206f776e65722063616e2064656c6574652074686520646f60448201526518dd5b595b9d60d21b6064820152608490fd5b5f80fd5b3461027b57602036600319011261027b57600435805f525f6020526102a960405f20913390610f52565b156103a25760018060a01b03600282015416906004810160058201546102da60016102d385610f9b565b9401610f9b565b60405190816020855491828152019081955f5260205f20905f5b818110610383575050508291610311602094610333930384610ce1565b6103266040519760a0895260a0890190610daa565b9087820385890152610daa565b9560408601528486036060860152519485815201915f945b80861061036057505082935060808301520390f35b81516001600160a01b03168452600195909501946020938401939091019061034b565b82546001600160a01b03168452602090930192600192830192016102f4565b60405162461bcd60e51b815260206004820152600d60248201526c1058d8d95cdcc819195b9a5959609a1b6044820152606490fd5b3461027b57604036600319011261027b576024356001600160a01b038116810361027b57610409602091600435610f52565b6040519015158152f35b3461027b57602036600319011261027b576004356001600160a01b0381169081900361027b575f52600160205260405f206040519081602082549182815201915f5260205f20905f5b8181106104835761047f8561047381870382610ce1565b60405191829182610d71565b0390f35b825484526020909301926001928301920161045c565b3461027b57604036600319011261027b5760243560043567ffffffffffffffff821161027b573660238301121561027b5781600401356104d881610d03565b926104e66040519485610ce1565b8184526024602085019260051b8201019036821161027b57602401915b818310610717575050505f81815260208190526040902060028101546001600160a01b031633036106c45760048101918391600301905f5b83518110156106c2576001600160a01b036105568286610dce565b51169033821461066d576001600160a01b0382165f9081526020859052604090205460ff16610619576001600160a01b0382165f908152602085905260409020805460ff19166001179055855491600160401b831015610605576105c1836001809501895588610df6565b81549060031b9083821b91868060a01b03901b191617905533847fa507a2cd8746fbc6473095db582693901b8602b25e20315dc5d9ad9680b931fa5f80a40161053b565b634e487b7160e01b5f52604160045260245ffd5b60405162461bcd60e51b815260206004820152602660248201527f446f63756d656e7420616c72656164792073686172656420776974682074686960448201526539903ab9b2b960d11b6064820152608490fd5b60405162461bcd60e51b815260206004820152602760248201527f43616e6e6f742073686172652074686520646f63756d656e742077697468207960448201526637bab939b2b63360c91b6064820152608490fd5b005b60405162461bcd60e51b815260206004820152602560248201527f4f6e6c7920746865206f776e65722063616e2073686172652074686520646f636044820152641d5b595b9d60da1b6064820152608490fd5b82356001600160a01b038116810361027b57815260209283019201610503565b3461027b57604036600319011261027b5760043567ffffffffffffffff811161027b57610768903690600401610d1b565b60243567ffffffffffffffff811161027b57610788903690600401610d1b565b81511561093d578051156108f85760405160208101906107cc6034602083875180838a01885e81013360601b83820152428482015203016014810184520182610ce1565b51902090815f525f6020526107e460405f2054610e0b565b6108b357815f525f60205260405f206107fd8482610e59565b61080a8260018301610e59565b60028101336bffffffffffffffffffffffff60a01b825416179055600542910155335f52600160205260405f2090815490600160401b821015610605578361087f610154847fcc54e8885ac101b69affd3739dd882dc287769ea0f97c00c151cb8ad85002a229660016108a497018155610df6565b905561089660405195606087526060870190610daa565b908582036020870152610daa565b924260408201528033940390a3005b60405162461bcd60e51b815260206004820152601760248201527f446f63756d656e7420616c7265616479206578697374730000000000000000006044820152606490fd5b60405162461bcd60e51b815260206004820152601960248201527f4950465320686173682063616e6e6f7420626520656d707479000000000000006044820152606490fd5b60405162461bcd60e51b815260206004820152601d60248201527f446f63756d656e74206e616d652063616e6e6f7420626520656d7074790000006044820152606490fd5b3461027b57602036600319011261027b5760043567ffffffffffffffff811161027b576109b3903690600401610d1b565b335f52600160205260405f20546109c981610d03565b906109d76040519283610ce1565b8082526109e6601f1991610d03565b013660208301375f9160208101835b335f52600160205260405f2054811015610b6c57335f526001602052610a1e8160405f20610df6565b90549060031b1c805f525f60205260405f209060065f92018054925b838110610a4e575b505050506001016109f5565b610a6081839996999894979598610df6565b506040516020810191815f825492610a7784610e0b565b9360018116908115610b4e5750600114610b0f575b50610aa0925003601f198101835282610ce1565b5190206040516020810190610acd6020828851808b875e81015f838201520301601f198101835282610ce1565b51902014610ae5576001019693969592949195610a3a565b5050935091610af78683969793610dce565b525f1981146101cc5760018091019490868080610a42565b9150505f528160205f205f905b838210610b345750506020610aa0928201018e610a8c565b602091925080600191548385880101520191018391610b1c565b60ff1916875250610aa09380151502830160200191508f9050610a8c565b6040518061047f8682610d71565b3461027b57604036600319011261027b5760243567ffffffffffffffff811161027b573660238201121561027b578060040135610bb681610d03565b91610bc46040519384610ce1565b8183526024602084019260051b8201019036821161027b5760248101925b828410610cb157846004355f525f60205260405f2060018060a01b036002820154163303610c6c57600601905f5b81518110156106c257610c238183610dce565b51908354600160401b81101561060557806001610c439201865585610df6565b610c5957600192610c5391610e59565b01610c10565b634e487b7160e01b5f525f60045260245ffd5b60405162461bcd60e51b815260206004820152601b60248201527f4f6e6c7920746865206f776e65722063616e20616464207461677300000000006044820152606490fd5b833567ffffffffffffffff811161027b57602091610cd6839260243691870101610d1b565b815201930192610be2565b90601f8019910116810190811067ffffffffffffffff82111761060557604052565b67ffffffffffffffff81116106055760051b60200190565b81601f8201121561027b5780359067ffffffffffffffff82116106055760405192610d50601f8401601f191660200185610ce1565b8284526020838301011161027b57815f926020809301838601378301015290565b60206040818301928281528451809452019201905f5b818110610d945750505090565b8251845260209384019390920191600101610d87565b805180835260209291819084018484015e5f828201840152601f01601f1916010190565b8051821015610de25760209160051b010190565b634e487b7160e01b5f52603260045260245ffd5b8054821015610de2575f5260205f2001905f90565b90600182811c92168015610e39575b6020831014610e2557565b634e487b7160e01b5f52602260045260245ffd5b91607f1691610e1a565b818110610e4e575050565b5f8155600101610e43565b919091825167ffffffffffffffff811161060557610e778254610e0b565b601f8111610f17575b506020601f8211600114610eb957819293945f92610eae575b50508160011b915f199060031b1c1916179055565b015190505f80610e99565b601f19821690835f52805f20915f5b818110610eff57509583600195969710610ee7575b505050811b019055565b01515f1960f88460031b161c191690555f8080610edd565b9192602060018192868b015181550194019201610ec8565b610f4290835f5260205f20601f840160051c81019160208510610f48575b601f0160051c0190610e43565b5f610e80565b9091508190610f35565b5f90815260208190526040902060028101546001600160a01b03838116911614918215610f7e57505090565b6003925060018060a01b03165f520160205260ff60405f20541690565b9060405191825f825492610fae84610e0b565b80845293600181169081156110195750600114610fd5575b50610fd392500383610ce1565b565b90505f9291925260205f20905f915b818310610ffd575050906020610fd3928201015f610fc6565b6020919350806001915483858901015201910190918492610fe4565b905060209250610fd394915060ff191682840152151560051b8201015f610fc6565b6110458154610e0b565b908161104f575050565b81601f5f9311600114611060575055565b8183526020832061107c91601f0160051c810190600101610e43565b808252816020812091555556fea2646970667358221220e10aef507e433819d5427112c339da0e428087a62ab5fbd2b10aeb120b805d2164736f6c634300081c0033",
    "sourcePath": "c:/Users/user/Desktop/WBDSSWBT/contracts/DocumentSharing.sol",
    "compiler": {
        "name": "solc",
        "version": "0.8.28+commit.7893614a"
    },
    "functionHashes": {
        "addTags(bytes32,string[])": "0af20d1a",
        "deleteDocument(bytes32)": "db736b70",
        "getDocument(bytes32)": "b10d6b41",
        "getDocumentsByOwner(address)": "7ddfc7d4",
        "hasAccess(bytes32,address)": "83177db3",
        "searchByTag(string)": "207126db",
        "shareDocumentBatch(bytes32,address[])": "6d2c16bc",
        "uploadDocument(string,string)": "4464fe33"
    },
    "gasEstimates": {
        "creation": {
            "codeDepositCost": "857400",
            "executionCost": "898",
            "totalCost": "858298"
        },
        "external": {
            "addTags(bytes32,string[])": "infinite",
            "deleteDocument(bytes32)": "infinite",
            "getDocument(bytes32)": "infinite",
            "getDocumentsByOwner(address)": "infinite",
            "hasAccess(bytes32,address)": "4773",
            "searchByTag(string)": "infinite",
            "shareDocumentBatch(bytes32,address[])": "infinite",
            "uploadDocument(string,string)": "infinite"
        }
    }
}