{
  "_format": "hh-sol-artifact-1",
  "contractName": "DocumentSharing",
  "sourceName": "contracts/DocumentSharing.sol",
  "abi": [
    {
      "anonymous": false,
      "inputs": [
        {
          "indexed": true,
          "internalType": "bytes32",
          "name": "docId",
          "type": "bytes32"
        },
        {
          "indexed": true,
          "internalType": "address",
          "name": "recipient",
          "type": "address"
        }
      ],
      "name": "AccessRevoked",
      "type": "event"
    },
    {
      "anonymous": false,
      "inputs": [
        {
          "indexed": true,
          "internalType": "bytes32",
          "name": "docId",
          "type": "bytes32"
        }
      ],
      "name": "DocumentDeleted",
      "type": "event"
    },
    {
      "anonymous": false,
      "inputs": [
        {
          "indexed": true,
          "internalType": "bytes32",
          "name": "docId",
          "type": "bytes32"
        },
        {
          "indexed": true,
          "internalType": "address",
          "name": "from",
          "type": "address"
        },
        {
          "indexed": true,
          "internalType": "address",
          "name": "to",
          "type": "address"
        }
      ],
      "name": "DocumentShared",
      "type": "event"
    },
    {
      "anonymous": false,
      "inputs": [
        {
          "indexed": true,
          "internalType": "bytes32",
          "name": "docId",
          "type": "bytes32"
        },
        {
          "indexed": false,
          "internalType": "string",
          "name": "name",
          "type": "string"
        },
        {
          "indexed": false,
          "internalType": "string",
          "name": "ipfsHash",
          "type": "string"
        },
        {
          "indexed": true,
          "internalType": "address",
          "name": "owner",
          "type": "address"
        },
        {
          "indexed": false,
          "internalType": "uint256",
          "name": "timestamp",
          "type": "uint256"
        }
      ],
      "name": "DocumentUploaded",
      "type": "event"
    },
    {
      "inputs": [
        {
          "internalType": "bytes32",
          "name": "docId",
          "type": "bytes32"
        },
        {
          "internalType": "string[]",
          "name": "newTags",
          "type": "string[]"
        }
      ],
      "name": "addTags",
      "outputs": [],
      "stateMutability": "nonpayable",
      "type": "function"
    },
    {
      "inputs": [
        {
          "internalType": "bytes32",
          "name": "docId",
          "type": "bytes32"
        }
      ],
      "name": "deleteDocument",
      "outputs": [],
      "stateMutability": "nonpayable",
      "type": "function"
    },
    {
      "inputs": [
        {
          "internalType": "bytes32",
          "name": "docId",
          "type": "bytes32"
        }
      ],
      "name": "getDocument",
      "outputs": [
        {
          "internalType": "string",
          "name": "name",
          "type": "string"
        },
        {
          "internalType": "string",
          "name": "ipfsHash",
          "type": "string"
        },
        {
          "internalType": "address",
          "name": "owner",
          "type": "address"
        },
        {
          "internalType": "address[]",
          "name": "sharedWithArray",
          "type": "address[]"
        },
        {
          "internalType": "uint256",
          "name": "timestamp",
          "type": "uint256"
        }
      ],
      "stateMutability": "view",
      "type": "function"
    },
    {
      "inputs": [
        {
          "internalType": "bytes32",
          "name": "docId",
          "type": "bytes32"
        }
      ],
      "name": "getDocumentTags",
      "outputs": [
        {
          "internalType": "string[]",
          "name": "",
          "type": "string[]"
        }
      ],
      "stateMutability": "view",
      "type": "function"
    },
    {
      "inputs": [
        {
          "internalType": "address",
          "name": "owner",
          "type": "address"
        }
      ],
      "name": "getDocumentsByOwner",
      "outputs": [
        {
          "internalType": "bytes32[]",
          "name": "",
          "type": "bytes32[]"
        }
      ],
      "stateMutability": "view",
      "type": "function"
    },
    {
      "inputs": [
        {
          "internalType": "bytes32",
          "name": "docId",
          "type": "bytes32"
        },
        {
          "internalType": "address",
          "name": "user",
          "type": "address"
        }
      ],
      "name": "hasAccess",
      "outputs": [
        {
          "internalType": "bool",
          "name": "",
          "type": "bool"
        }
      ],
      "stateMutability": "view",
      "type": "function"
    },
    {
      "inputs": [
        {
          "internalType": "bytes32",
          "name": "docId",
          "type": "bytes32"
        },
        {
          "internalType": "address",
          "name": "recipient",
          "type": "address"
        }
      ],
      "name": "revokeAccess",
      "outputs": [],
      "stateMutability": "nonpayable",
      "type": "function"
    },
    {
      "inputs": [
        {
          "internalType": "string",
          "name": "tag",
          "type": "string"
        }
      ],
      "name": "searchByTag",
      "outputs": [
        {
          "internalType": "bytes32[]",
          "name": "docIds",
          "type": "bytes32[]"
        }
      ],
      "stateMutability": "view",
      "type": "function"
    },
    {
      "inputs": [
        {
          "internalType": "bytes32",
          "name": "docId",
          "type": "bytes32"
        },
        {
          "internalType": "address",
          "name": "recipient",
          "type": "address"
        }
      ],
      "name": "shareDocument",
      "outputs": [],
      "stateMutability": "nonpayable",
      "type": "function"
    },
    {
      "inputs": [
        {
          "internalType": "string",
          "name": "name",
          "type": "string"
        },
        {
          "internalType": "string",
          "name": "ipfsHash",
          "type": "string"
        }
      ],
      "name": "uploadDocument",
      "outputs": [],
      "stateMutability": "nonpayable",
      "type": "function"
    }
  ],
  "bytecode": "0x608060405234801561001057600080fd5b50612c39806100206000396000f3fe608060405234801561001057600080fd5b506004361061009e5760003560e01c806383177db31161006657806383177db3146101575780638d53b20814610187578063ae3eab07146101a3578063b10d6b41146101d3578063db736b70146102075761009e565b80630af20d1a146100a3578063207126db146100bf5780634464fe33146100ef5780637ddfc7d41461010b5780637e2550d21461013b575b600080fd5b6100bd60048036038101906100b89190611dbe565b610223565b005b6100d960048036038101906100d49190611e12565b6103c1565b6040516100e691906125a8565b60405180910390f35b61010960048036038101906101049190611e53565b6107b3565b005b61012560048036038101906101209190611d30565b610a21565b60405161013291906125a8565b60405180910390f35b61015560048036038101906101509190611d82565b610ab8565b005b610171600480360381019061016c9190611d82565b610dd1565b60405161017e91906125ec565b60405180910390f35b6101a1600480360381019061019c9190611d82565b610eed565b005b6101bd60048036038101906101b89190611d59565b61134b565b6040516101ca91906125ca565b60405180910390f35b6101ed60048036038101906101e89190611d59565b6114db565b6040516101fe959493929190612607565b60405180910390f35b610221600480360381019061021c9190611d59565b61177f565b005b60008060008481526020019081526020016000209050600081600001805461024a90612a81565b90501161028c576040517f08c379a0000000000000000000000000000000000000000000000000000000008152600401610283906127d4565b60405180910390fd5b8060020160009054906101000a900473ffffffffffffffffffffffffffffffffffffffff1673ffffffffffffffffffffffffffffffffffffffff163373ffffffffffffffffffffffffffffffffffffffff161461031e576040517f08c379a0000000000000000000000000000000000000000000000000000000008152600401610315906126b4565b60405180910390fd5b60005b82518110156103bb5781600601838281518110610367577f4e487b7100000000000000000000000000000000000000000000000000000000600052603260045260246000fd5b60200260200101519080600181540180825580915050600190039060005260206000200160009091909190915090805190602001906103a7929190611ace565b5080806103b390612ab3565b915050610321565b50505050565b6060600080600160003373ffffffffffffffffffffffffffffffffffffffff1673ffffffffffffffffffffffffffffffffffffffff1681526020019081526020016000208054905067ffffffffffffffff811115610448577f4e487b7100000000000000000000000000000000000000000000000000000000600052604160045260246000fd5b6040519080825280602002602001820160405280156104765781602001602082028036833780820191505090505b50905060005b600160003373ffffffffffffffffffffffffffffffffffffffff1673ffffffffffffffffffffffffffffffffffffffff1681526020019081526020016000208054905081101561068f576000600160003373ffffffffffffffffffffffffffffffffffffffff1673ffffffffffffffffffffffffffffffffffffffff168152602001908152602001600020828154811061053f577f4e487b7100000000000000000000000000000000000000000000000000000000600052603260045260246000fd5b906000526020600020015490506000806000838152602001908152602001600020905060005b816006018054905081101561067957876040516020016105859190612541565b604051602081830303815290604052805190602001208260060182815481106105d7577f4e487b7100000000000000000000000000000000000000000000000000000000600052603260045260246000fd5b906000526020600020016040516020016105f19190612591565b6040516020818303038152906040528051906020012014156106665782858781518110610647577f4e487b7100000000000000000000000000000000000000000000000000000000600052603260045260246000fd5b602002602001018181525050858061065e90612ab3565b965050610679565b808061067190612ab3565b915050610565565b505050808061068790612ab3565b91505061047c565b5060008267ffffffffffffffff8111156106d2577f4e487b7100000000000000000000000000000000000000000000000000000000600052604160045260246000fd5b6040519080825280602002602001820160405280156107005781602001602082028036833780820191505090505b50905060005b838110156107a757828181518110610747577f4e487b7100000000000000000000000000000000000000000000000000000000600052603260045260246000fd5b6020026020010151828281518110610788577f4e487b7100000000000000000000000000000000000000000000000000000000600052603260045260246000fd5b602002602001018181525050808061079f90612ab3565b915050610706565b50809350505050919050565b60008251116107f7576040517f08c379a00000000000000000000000000000000000000000000000000000000081526004016107ee90612814565b60405180910390fd5b600081511161083b576040517f08c379a000000000000000000000000000000000000000000000000000000000815260040161083290612734565b60405180910390fd5b600082334260405160200161085293929190612558565b6040516020818303038152906040528051906020012090506000806000838152602001908152602001600020600001805461088c90612a81565b9050146108ce576040517f08c379a00000000000000000000000000000000000000000000000000000000081526004016108c590612714565b60405180910390fd5b60008060008381526020019081526020016000209050838160000190805190602001906108fc929190611ace565b5082816001019080519060200190610915929190611ace565b50338160020160006101000a81548173ffffffffffffffffffffffffffffffffffffffff021916908373ffffffffffffffffffffffffffffffffffffffff160217905550428160050181905550600160003373ffffffffffffffffffffffffffffffffffffffff1673ffffffffffffffffffffffffffffffffffffffff1681526020019081526020016000208290806001815401808255809150506001900390600052602060002001600090919091909150553373ffffffffffffffffffffffffffffffffffffffff16827fcc54e8885ac101b69affd3739dd882dc287769ea0f97c00c151cb8ad85002a22868642604051610a139392919061266f565b60405180910390a350505050565b6060600160008373ffffffffffffffffffffffffffffffffffffffff1673ffffffffffffffffffffffffffffffffffffffff168152602001908152602001600020805480602002602001604051908101604052809291908181526020018280548015610aac57602002820191906000526020600020905b815481526020019060010190808311610a98575b50505050509050919050565b600073ffffffffffffffffffffffffffffffffffffffff168173ffffffffffffffffffffffffffffffffffffffff161415610b28576040517f08c379a0000000000000000000000000000000000000000000000000000000008152600401610b1f90612754565b60405180910390fd5b600080600084815260200190815260200160002090506000816000018054610b4f90612a81565b905011610b91576040517f08c379a0000000000000000000000000000000000000000000000000000000008152600401610b88906127d4565b60405180910390fd5b8060020160009054906101000a900473ffffffffffffffffffffffffffffffffffffffff1673ffffffffffffffffffffffffffffffffffffffff163373ffffffffffffffffffffffffffffffffffffffff1614610c23576040517f08c379a0000000000000000000000000000000000000000000000000000000008152600401610c1a906127b4565b60405180910390fd5b8060030160008373ffffffffffffffffffffffffffffffffffffffff1673ffffffffffffffffffffffffffffffffffffffff16815260200190815260200160002060009054906101000a900460ff1615610cb2576040517f08c379a0000000000000000000000000000000000000000000000000000000008152600401610ca990612774565b60405180910390fd5b60018160030160008473ffffffffffffffffffffffffffffffffffffffff1673ffffffffffffffffffffffffffffffffffffffff16815260200190815260200160002060006101000a81548160ff02191690831515021790555080600401829080600181540180825580915050600190039060005260206000200160009091909190916101000a81548173ffffffffffffffffffffffffffffffffffffffff021916908373ffffffffffffffffffffffffffffffffffffffff1602179055508173ffffffffffffffffffffffffffffffffffffffff163373ffffffffffffffffffffffffffffffffffffffff16847fa507a2cd8746fbc6473095db582693901b8602b25e20315dc5d9ad9680b931fa60405160405180910390a4505050565b60008060008085815260200190815260200160002090506000816000018054610df990612a81565b905011610e3b576040517f08c379a0000000000000000000000000000000000000000000000000000000008152600401610e32906127d4565b60405180910390fd5b8060020160009054906101000a900473ffffffffffffffffffffffffffffffffffffffff1673ffffffffffffffffffffffffffffffffffffffff168373ffffffffffffffffffffffffffffffffffffffff161480610ee457508060030160008473ffffffffffffffffffffffffffffffffffffffff1673ffffffffffffffffffffffffffffffffffffffff16815260200190815260200160002060009054906101000a900460ff165b91505092915050565b600080600084815260200190815260200160002090506000816000018054610f1490612a81565b905011610f56576040517f08c379a0000000000000000000000000000000000000000000000000000000008152600401610f4d906127d4565b60405180910390fd5b8060020160009054906101000a900473ffffffffffffffffffffffffffffffffffffffff1673ffffffffffffffffffffffffffffffffffffffff163373ffffffffffffffffffffffffffffffffffffffff1614610fe8576040517f08c379a0000000000000000000000000000000000000000000000000000000008152600401610fdf906126d4565b60405180910390fd5b8060030160008373ffffffffffffffffffffffffffffffffffffffff1673ffffffffffffffffffffffffffffffffffffffff16815260200190815260200160002060009054906101000a900460ff16611076576040517f08c379a000000000000000000000000000000000000000000000000000000000815260040161106d906126f4565b60405180910390fd5b60008160030160008473ffffffffffffffffffffffffffffffffffffffff1673ffffffffffffffffffffffffffffffffffffffff16815260200190815260200160002060006101000a81548160ff02191690831515021790555060005b8160040180549050811015611301578273ffffffffffffffffffffffffffffffffffffffff16826004018281548110611135577f4e487b7100000000000000000000000000000000000000000000000000000000600052603260045260246000fd5b9060005260206000200160009054906101000a900473ffffffffffffffffffffffffffffffffffffffff1673ffffffffffffffffffffffffffffffffffffffff1614156112ee57816004016001836004018054905061119491906129b9565b815481106111cb577f4e487b7100000000000000000000000000000000000000000000000000000000600052603260045260246000fd5b9060005260206000200160009054906101000a900473ffffffffffffffffffffffffffffffffffffffff16826004018281548110611232577f4e487b7100000000000000000000000000000000000000000000000000000000600052603260045260246000fd5b9060005260206000200160006101000a81548173ffffffffffffffffffffffffffffffffffffffff021916908373ffffffffffffffffffffffffffffffffffffffff160217905550816004018054806112b4577f4e487b7100000000000000000000000000000000000000000000000000000000600052603160045260246000fd5b6001900381819060005260206000200160006101000a81549073ffffffffffffffffffffffffffffffffffffffff02191690559055611301565b80806112f990612ab3565b9150506110d3565b508173ffffffffffffffffffffffffffffffffffffffff16837fe7906b77ea165c70ad8268ce5b59b778a198edf9c1ae4118378eefdc76fce5f460405160405180910390a3505050565b606060008060008481526020019081526020016000209050600081600001805461137490612a81565b9050116113b6576040517f08c379a00000000000000000000000000000000000000000000000000000000081526004016113ad906127d4565b60405180910390fd5b6113c08333610dd1565b6113ff576040517f08c379a00000000000000000000000000000000000000000000000000000000081526004016113f6906127f4565b60405180910390fd5b80600601805480602002602001604051908101604052809291908181526020016000905b828210156114cf57838290600052602060002001805461144290612a81565b80601f016020809104026020016040519081016040528092919081815260200182805461146e90612a81565b80156114bb5780601f10611490576101008083540402835291602001916114bb565b820191906000526020600020905b81548152906001019060200180831161149e57829003601f168201915b505050505081526020019060010190611423565b50505050915050919050565b606080600060606000806000808881526020019081526020016000209050600081600001805461150a90612a81565b90501161154c576040517f08c379a0000000000000000000000000000000000000000000000000000000008152600401611543906127d4565b60405180910390fd5b6115568733610dd1565b611595576040517f08c379a000000000000000000000000000000000000000000000000000000000815260040161158c906127f4565b60405180910390fd5b80600001816001018260020160009054906101000a900473ffffffffffffffffffffffffffffffffffffffff168360040184600501548480546115d790612a81565b80601f016020809104026020016040519081016040528092919081815260200182805461160390612a81565b80156116505780601f1061162557610100808354040283529160200191611650565b820191906000526020600020905b81548152906001019060200180831161163357829003601f168201915b5050505050945083805461166390612a81565b80601f016020809104026020016040519081016040528092919081815260200182805461168f90612a81565b80156116dc5780601f106116b1576101008083540402835291602001916116dc565b820191906000526020600020905b8154815290600101906020018083116116bf57829003601f168201915b505050505093508180548060200260200160405190810160405280929190818152602001828054801561176457602002820191906000526020600020905b8160009054906101000a900473ffffffffffffffffffffffffffffffffffffffff1673ffffffffffffffffffffffffffffffffffffffff168152602001906001019080831161171a575b50505050509150955095509550955095505091939590929450565b6000806000838152602001908152602001600020905060008160000180546117a690612a81565b9050116117e8576040517f08c379a00000000000000000000000000000000000000000000000000000000081526004016117df906127d4565b60405180910390fd5b8060020160009054906101000a900473ffffffffffffffffffffffffffffffffffffffff1673ffffffffffffffffffffffffffffffffffffffff163373ffffffffffffffffffffffffffffffffffffffff161461187a576040517f08c379a000000000000000000000000000000000000000000000000000000000815260040161187190612794565b60405180910390fd5b6000808381526020019081526020016000206000808201600061189d9190611b54565b6001820160006118ad9190611b54565b6002820160006101000a81549073ffffffffffffffffffffffffffffffffffffffff02191690556004820160006118e49190611b94565b60058201600090556006820160006118fc9190611bb5565b50506000600160003373ffffffffffffffffffffffffffffffffffffffff1673ffffffffffffffffffffffffffffffffffffffff168152602001908152602001600020905060005b8180549050811015611a9b578382828154811061198a577f4e487b7100000000000000000000000000000000000000000000000000000000600052603260045260246000fd5b90600052602060002001541415611a885781600183805490506119ad91906129b9565b815481106119e4577f4e487b7100000000000000000000000000000000000000000000000000000000600052603260045260246000fd5b9060005260206000200154828281548110611a28577f4e487b7100000000000000000000000000000000000000000000000000000000600052603260045260246000fd5b906000526020600020018190555081805480611a6d577f4e487b7100000000000000000000000000000000000000000000000000000000600052603160045260246000fd5b60019003818190600052602060002001600090559055611a9b565b8080611a9390612ab3565b915050611944565b50827f91f2d4a64ed6f16c6791d415c59ac18af9356ab2eaf9595c8145c06dd938b06660405160405180910390a2505050565b828054611ada90612a81565b90600052602060002090601f016020900481019282611afc5760008555611b43565b82601f10611b1557805160ff1916838001178555611b43565b82800160010185558215611b43579182015b82811115611b42578251825591602001919060010190611b27565b5b509050611b509190611bd6565b5090565b508054611b6090612a81565b6000825580601f10611b725750611b91565b601f016020900490600052602060002090810190611b909190611bd6565b5b50565b5080546000825590600052602060002090810190611bb29190611bd6565b50565b5080546000825590600052602060002090810190611bd39190611bf3565b50565b5b80821115611bef576000816000905550600101611bd7565b5090565b5b80821115611c135760008181611c0a9190611b54565b50600101611bf4565b5090565b6000611c2a611c2584612865565b612834565b9050808382526020820190508260005b85811015611c6a5781358501611c508882611d06565b845260208401935060208301925050600181019050611c3a565b5050509392505050565b6000611c87611c8284612891565b612834565b905082815260208101848484011115611c9f57600080fd5b611caa848285612a3f565b509392505050565b600081359050611cc181612bd5565b92915050565b600082601f830112611cd857600080fd5b8135611ce8848260208601611c17565b91505092915050565b600081359050611d0081612bec565b92915050565b600082601f830112611d1757600080fd5b8135611d27848260208601611c74565b91505092915050565b600060208284031215611d4257600080fd5b6000611d5084828501611cb2565b91505092915050565b600060208284031215611d6b57600080fd5b6000611d7984828501611cf1565b91505092915050565b60008060408385031215611d9557600080fd5b6000611da385828601611cf1565b9250506020611db485828601611cb2565b9150509250929050565b60008060408385031215611dd157600080fd5b6000611ddf85828601611cf1565b925050602083013567ffffffffffffffff811115611dfc57600080fd5b611e0885828601611cc7565b9150509250929050565b600060208284031215611e2457600080fd5b600082013567ffffffffffffffff811115611e3e57600080fd5b611e4a84828501611d06565b91505092915050565b60008060408385031215611e6657600080fd5b600083013567ffffffffffffffff811115611e8057600080fd5b611e8c85828601611d06565b925050602083013567ffffffffffffffff811115611ea957600080fd5b611eb585828601611d06565b9150509250929050565b6000611ecb8383611f03565b60208301905092915050565b6000611ee38383612078565b60208301905092915050565b6000611efb8383612087565b905092915050565b611f0c816129ed565b82525050565b611f1b816129ed565b82525050565b611f32611f2d826129ed565b612afc565b82525050565b6000611f4382612906565b611f4d8185612959565b9350611f58836128c1565b8060005b83811015611f89578151611f708882611ebf565b9750611f7b83612932565b925050600181019050611f5c565b5085935050505092915050565b6000611fa182612911565b611fab818561296a565b9350611fb6836128d1565b8060005b83811015611fe7578151611fce8882611ed7565b9750611fd98361293f565b925050600181019050611fba565b5085935050505092915050565b6000611fff8261291c565b612009818561297b565b93508360208202850161201b856128e1565b8060005b8581101561205757848403895281516120388582611eef565b94506120438361294c565b925060208a0199505060018101905061201f565b50829750879550505050505092915050565b612072816129ff565b82525050565b61208181612a0b565b82525050565b600061209282612927565b61209c818561298c565b93506120ac818560208601612a4e565b6120b581612bb7565b840191505092915050565b60006120cb82612927565b6120d5818561299d565b93506120e5818560208601612a4e565b6120ee81612bb7565b840191505092915050565b600061210482612927565b61210e81856129ae565b935061211e818560208601612a4e565b80840191505092915050565b6000815461213781612a81565b61214181866129ae565b9450600182166000811461215c576001811461216d576121a0565b60ff198316865281860193506121a0565b612176856128f1565b60005b8381101561219857815481890152600182019150602081019050612179565b838801955050505b50505092915050565b60006121b6601b8361299d565b91507f4f6e6c7920746865206f776e65722063616e20616464207461677300000000006000830152602082019050919050565b60006121f660208361299d565b91507f4f6e6c7920746865206f776e65722063616e207265766f6b65206163636573736000830152602082019050919050565b6000612236601e8361299d565b91507f526563697069656e7420646f6573206e6f7420686176652061636365737300006000830152602082019050919050565b600061227660178361299d565b91507f446f63756d656e7420616c7265616479206578697374730000000000000000006000830152602082019050919050565b60006122b660198361299d565b91507f4950465320686173682063616e6e6f7420626520656d707479000000000000006000830152602082019050919050565b60006122f660198361299d565b91507f496e76616c696420726563697069656e742061646472657373000000000000006000830152602082019050919050565b6000612336602b8361299d565b91507f446f63756d656e7420616c72656164792073686172656420776974682074686960008301527f7320726563697069656e740000000000000000000000000000000000000000006020830152604082019050919050565b600061239c60268361299d565b91507f4f6e6c7920746865206f776e65722063616e2064656c6574652074686520646f60008301527f63756d656e7400000000000000000000000000000000000000000000000000006020830152604082019050919050565b600061240260258361299d565b91507f4f6e6c7920746865206f776e65722063616e2073686172652074686520646f6360008301527f756d656e740000000000000000000000000000000000000000000000000000006020830152604082019050919050565b600061246860178361299d565b91507f446f63756d656e7420646f6573206e6f742065786973740000000000000000006000830152602082019050919050565b60006124a8600d8361299d565b91507f4163636573732064656e696564000000000000000000000000000000000000006000830152602082019050919050565b60006124e8601d8361299d565b91507f446f63756d656e74206e616d652063616e6e6f7420626520656d7074790000006000830152602082019050919050565b61252481612a35565b82525050565b61253b61253682612a35565b612b20565b82525050565b600061254d82846120f9565b915081905092915050565b600061256482866120f9565b91506125708285611f21565b601482019150612580828461252a565b602082019150819050949350505050565b600061259d828461212a565b915081905092915050565b600060208201905081810360008301526125c28184611f96565b905092915050565b600060208201905081810360008301526125e48184611ff4565b905092915050565b60006020820190506126016000830184612069565b92915050565b600060a082019050818103600083015261262181886120c0565b9050818103602083015261263581876120c0565b90506126446040830186611f12565b81810360608301526126568185611f38565b9050612665608083018461251b565b9695505050505050565b6000606082019050818103600083015261268981866120c0565b9050818103602083015261269d81856120c0565b90506126ac604083018461251b565b949350505050565b600060208201905081810360008301526126cd816121a9565b9050919050565b600060208201905081810360008301526126ed816121e9565b9050919050565b6000602082019050818103600083015261270d81612229565b9050919050565b6000602082019050818103600083015261272d81612269565b9050919050565b6000602082019050818103600083015261274d816122a9565b9050919050565b6000602082019050818103600083015261276d816122e9565b9050919050565b6000602082019050818103600083015261278d81612329565b9050919050565b600060208201905081810360008301526127ad8161238f565b9050919050565b600060208201905081810360008301526127cd816123f5565b9050919050565b600060208201905081810360008301526127ed8161245b565b9050919050565b6000602082019050818103600083015261280d8161249b565b9050919050565b6000602082019050818103600083015261282d816124db565b9050919050565b6000604051905081810181811067ffffffffffffffff8211171561285b5761285a612b88565b5b8060405250919050565b600067ffffffffffffffff8211156128805761287f612b88565b5b602082029050602081019050919050565b600067ffffffffffffffff8211156128ac576128ab612b88565b5b601f19601f8301169050602081019050919050565b6000819050602082019050919050565b6000819050602082019050919050565b6000819050602082019050919050565b60008190508160005260206000209050919050565b600081519050919050565b600081519050919050565b600081519050919050565b600081519050919050565b6000602082019050919050565b6000602082019050919050565b6000602082019050919050565b600082825260208201905092915050565b600082825260208201905092915050565b600082825260208201905092915050565b600082825260208201905092915050565b600082825260208201905092915050565b600081905092915050565b60006129c482612a35565b91506129cf83612a35565b9250828210156129e2576129e1612b2a565b5b828203905092915050565b60006129f882612a15565b9050919050565b60008115159050919050565b6000819050919050565b600073ffffffffffffffffffffffffffffffffffffffff82169050919050565b6000819050919050565b82818337600083830152505050565b60005b83811015612a6c578082015181840152602081019050612a51565b83811115612a7b576000848401525b50505050565b60006002820490506001821680612a9957607f821691505b60208210811415612aad57612aac612b59565b5b50919050565b6000612abe82612a35565b91507fffffffffffffffffffffffffffffffffffffffffffffffffffffffffffffffff821415612af157612af0612b2a565b5b600182019050919050565b6000612b0782612b0e565b9050919050565b6000612b1982612bc8565b9050919050565b6000819050919050565b7f4e487b7100000000000000000000000000000000000000000000000000000000600052601160045260246000fd5b7f4e487b7100000000000000000000000000000000000000000000000000000000600052602260045260246000fd5b7f4e487b7100000000000000000000000000000000000000000000000000000000600052604160045260246000fd5b6000601f19601f8301169050919050565b60008160601b9050919050565b612bde816129ed565b8114612be957600080fd5b50565b612bf581612a0b565b8114612c0057600080fd5b5056fea264697066735822122049b96e832eddb4b62114db33cadb397b1b2191b081864738201d75658d28fe0b64736f6c63430008000033",
  "linkReferences": {},
  "deployedLinkReferences": {}
}