{
  "_format": "hh-sol-artifact-1",
  "contractName": "DocumentSharing",
  "sourceName": "contracts/DocumentSharing.sol",
  "abi": [
    {
      "anonymous": false,
      "inputs": [
        {
          "indexed": true,
          "internalType": "bytes32",
          "name": "docId",
          "type": "bytes32"
        },
        {
          "indexed": true,
          "internalType": "address",
          "name": "recipient",
          "type": "address"
        }
      ],
      "name": "AccessRevoked",
      "type": "event"
    },
    {
      "anonymous": false,
      "inputs": [
        {
          "indexed": true,
          "internalType": "bytes32",
          "name": "docId",
          "type": "bytes32"
        }
      ],
      "name": "DocumentDeleted",
      "type": "event"
    },
    {
      "anonymous": false,
      "inputs": [
        {
          "indexed": true,
          "internalType": "bytes32",
          "name": "docId",
          "type": "bytes32"
        },
        {
          "indexed": true,
          "internalType": "address",
          "name": "from",
          "type": "address"
        },
        {
          "indexed": true,
          "internalType": "address",
          "name": "to",
          "type": "address"
        }
      ],
      "name": "DocumentShared",
      "type": "event"
    },
    {
      "anonymous": false,
      "inputs": [
        {
          "indexed": true,
          "internalType": "bytes32",
          "name": "docId",
          "type": "bytes32"
        },
        {
          "indexed": false,
          "internalType": "string",
          "name": "name",
          "type": "string"
        },
        {
          "indexed": false,
          "internalType": "string",
          "name": "ipfsHash",
          "type": "string"
        },
        {
          "indexed": true,
          "internalType": "address",
          "name": "owner",
          "type": "address"
        },
        {
          "indexed": false,
          "internalType": "uint256",
          "name": "timestamp",
          "type": "uint256"
        }
      ],
      "name": "DocumentUploaded",
      "type": "event"
    },
    {
      "inputs": [
        {
          "internalType": "bytes32",
          "name": "docId",
          "type": "bytes32"
        },
        {
          "internalType": "string[]",
          "name": "newTags",
          "type": "string[]"
        }
      ],
      "name": "addTags",
      "outputs": [],
      "stateMutability": "nonpayable",
      "type": "function"
    },
    {
      "inputs": [
        {
          "internalType": "bytes32",
          "name": "docId",
          "type": "bytes32"
        }
      ],
      "name": "deleteDocument",
      "outputs": [],
      "stateMutability": "nonpayable",
      "type": "function"
    },
    {
      "inputs": [
        {
          "internalType": "bytes32",
          "name": "docId",
          "type": "bytes32"
        }
      ],
      "name": "getDocument",
      "outputs": [
        {
          "internalType": "string",
          "name": "name",
          "type": "string"
        },
        {
          "internalType": "string",
          "name": "ipfsHash",
          "type": "string"
        },
        {
          "internalType": "address",
          "name": "owner",
          "type": "address"
        },
        {
          "internalType": "address[]",
          "name": "sharedWithArray",
          "type": "address[]"
        },
        {
          "internalType": "uint256",
          "name": "timestamp",
          "type": "uint256"
        }
      ],
      "stateMutability": "view",
      "type": "function"
    },
    {
      "inputs": [
        {
          "internalType": "address",
          "name": "owner",
          "type": "address"
        }
      ],
      "name": "getDocumentsByOwner",
      "outputs": [
        {
          "internalType": "bytes32[]",
          "name": "",
          "type": "bytes32[]"
        }
      ],
      "stateMutability": "view",
      "type": "function"
    },
    {
      "inputs": [
        {
          "internalType": "bytes32",
          "name": "docId",
          "type": "bytes32"
        },
        {
          "internalType": "address",
          "name": "user",
          "type": "address"
        }
      ],
      "name": "hasAccess",
      "outputs": [
        {
          "internalType": "bool",
          "name": "",
          "type": "bool"
        }
      ],
      "stateMutability": "view",
      "type": "function"
    },
    {
      "inputs": [
        {
          "internalType": "string",
          "name": "tag",
          "type": "string"
        }
      ],
      "name": "searchByTag",
      "outputs": [
        {
          "internalType": "bytes32[]",
          "name": "docIds",
          "type": "bytes32[]"
        }
      ],
      "stateMutability": "view",
      "type": "function"
    },
    {
      "inputs": [
        {
          "internalType": "bytes32",
          "name": "docId",
          "type": "bytes32"
        },
        {
          "internalType": "address",
          "name": "recipient",
          "type": "address"
        }
      ],
      "name": "shareDocument",
      "outputs": [],
      "stateMutability": "nonpayable",
      "type": "function"
    },
    {
      "inputs": [
        {
          "internalType": "string",
          "name": "name",
          "type": "string"
        },
        {
          "internalType": "string",
          "name": "ipfsHash",
          "type": "string"
        }
      ],
      "name": "uploadDocument",
      "outputs": [],
      "stateMutability": "nonpayable",
      "type": "function"
    }
  ],
  "bytecode": "0x608060405234801561001057600080fd5b506122af806100206000396000f3fe608060405234801561001057600080fd5b50600436106100885760003560e01c80637e2550d21161005b5780637e2550d21461012557806383177db314610141578063b10d6b4114610171578063db736b70146101a557610088565b80630af20d1a1461008d578063207126db146100a95780634464fe33146100d95780637ddfc7d4146100f5575b600080fd5b6100a760048036038101906100a29190611622565b6101c1565b005b6100c360048036038101906100be9190611676565b61030c565b6040516100d09190611cca565b60405180910390f35b6100f360048036038101906100ee91906116b7565b6106fe565b005b61010f600480360381019061010a9190611594565b61096c565b60405161011c9190611cca565b60405180910390f35b61013f600480360381019061013a91906115e6565b610a03565b005b61015b600480360381019061015691906115e6565b610cc9565b6040516101689190611cec565b60405180910390f35b61018b600480360381019061018691906115bd565b610d92565b60405161019c959493929190611d07565b60405180910390f35b6101bf60048036038101906101ba91906115bd565b611036565b005b600080600084815260200190815260200160002090508060020160009054906101000a900473ffffffffffffffffffffffffffffffffffffffff1673ffffffffffffffffffffffffffffffffffffffff163373ffffffffffffffffffffffffffffffffffffffff1614610269576040517f08c379a000000000000000000000000000000000000000000000000000000000815260040161026090611db4565b60405180910390fd5b60005b825181101561030657816006018382815181106102b2577f4e487b7100000000000000000000000000000000000000000000000000000000600052603260045260246000fd5b60200260200101519080600181540180825580915050600190039060005260206000200160009091909190915090805190602001906102f2929190611332565b5080806102fe90612129565b91505061026c565b50505050565b6060600080600160003373ffffffffffffffffffffffffffffffffffffffff1673ffffffffffffffffffffffffffffffffffffffff1681526020019081526020016000208054905067ffffffffffffffff811115610393577f4e487b7100000000000000000000000000000000000000000000000000000000600052604160045260246000fd5b6040519080825280602002602001820160405280156103c15781602001602082028036833780820191505090505b50905060005b600160003373ffffffffffffffffffffffffffffffffffffffff1673ffffffffffffffffffffffffffffffffffffffff168152602001908152602001600020805490508110156105da576000600160003373ffffffffffffffffffffffffffffffffffffffff1673ffffffffffffffffffffffffffffffffffffffff168152602001908152602001600020828154811061048a577f4e487b7100000000000000000000000000000000000000000000000000000000600052603260045260246000fd5b906000526020600020015490506000806000838152602001908152602001600020905060005b81600601805490508110156105c457876040516020016104d09190611c63565b60405160208183030381529060405280519060200120826006018281548110610522577f4e487b7100000000000000000000000000000000000000000000000000000000600052603260045260246000fd5b9060005260206000200160405160200161053c9190611cb3565b6040516020818303038152906040528051906020012014156105b15782858781518110610592577f4e487b7100000000000000000000000000000000000000000000000000000000600052603260045260246000fd5b60200260200101818152505085806105a990612129565b9650506105c4565b80806105bc90612129565b9150506104b0565b50505080806105d290612129565b9150506103c7565b5060008267ffffffffffffffff81111561061d577f4e487b7100000000000000000000000000000000000000000000000000000000600052604160045260246000fd5b60405190808252806020026020018201604052801561064b5781602001602082028036833780820191505090505b50905060005b838110156106f257828181518110610692577f4e487b7100000000000000000000000000000000000000000000000000000000600052603260045260246000fd5b60200260200101518282815181106106d3577f4e487b7100000000000000000000000000000000000000000000000000000000600052603260045260246000fd5b60200260200101818152505080806106ea90612129565b915050610651565b50809350505050919050565b6000825111610742576040517f08c379a000000000000000000000000000000000000000000000000000000000815260040161073990611ed4565b60405180910390fd5b6000815111610786576040517f08c379a000000000000000000000000000000000000000000000000000000000815260040161077d90611df4565b60405180910390fd5b600082334260405160200161079d93929190611c7a565b604051602081830303815290604052805190602001209050600080600083815260200190815260200160002060000180546107d7906120f7565b905014610819576040517f08c379a000000000000000000000000000000000000000000000000000000000815260040161081090611dd4565b60405180910390fd5b6000806000838152602001908152602001600020905083816000019080519060200190610847929190611332565b5082816001019080519060200190610860929190611332565b50338160020160006101000a81548173ffffffffffffffffffffffffffffffffffffffff021916908373ffffffffffffffffffffffffffffffffffffffff160217905550428160050181905550600160003373ffffffffffffffffffffffffffffffffffffffff1673ffffffffffffffffffffffffffffffffffffffff1681526020019081526020016000208290806001815401808255809150506001900390600052602060002001600090919091909150553373ffffffffffffffffffffffffffffffffffffffff16827fcc54e8885ac101b69affd3739dd882dc287769ea0f97c00c151cb8ad85002a2286864260405161095e93929190611d6f565b60405180910390a350505050565b6060600160008373ffffffffffffffffffffffffffffffffffffffff1673ffffffffffffffffffffffffffffffffffffffff1681526020019081526020016000208054806020026020016040519081016040528092919081815260200182805480156109f757602002820191906000526020600020905b8154815260200190600101908083116109e3575b50505050509050919050565b600073ffffffffffffffffffffffffffffffffffffffff168173ffffffffffffffffffffffffffffffffffffffff161415610a73576040517f08c379a0000000000000000000000000000000000000000000000000000000008152600401610a6a90611e14565b60405180910390fd5b600080600084815260200190815260200160002090508060020160009054906101000a900473ffffffffffffffffffffffffffffffffffffffff1673ffffffffffffffffffffffffffffffffffffffff163373ffffffffffffffffffffffffffffffffffffffff1614610b1b576040517f08c379a0000000000000000000000000000000000000000000000000000000008152600401610b1290611e74565b60405180910390fd5b8060030160008373ffffffffffffffffffffffffffffffffffffffff1673ffffffffffffffffffffffffffffffffffffffff16815260200190815260200160002060009054906101000a900460ff1615610baa576040517f08c379a0000000000000000000000000000000000000000000000000000000008152600401610ba190611e34565b60405180910390fd5b60018160030160008473ffffffffffffffffffffffffffffffffffffffff1673ffffffffffffffffffffffffffffffffffffffff16815260200190815260200160002060006101000a81548160ff02191690831515021790555080600401829080600181540180825580915050600190039060005260206000200160009091909190916101000a81548173ffffffffffffffffffffffffffffffffffffffff021916908373ffffffffffffffffffffffffffffffffffffffff1602179055508173ffffffffffffffffffffffffffffffffffffffff163373ffffffffffffffffffffffffffffffffffffffff16847fa507a2cd8746fbc6473095db582693901b8602b25e20315dc5d9ad9680b931fa60405160405180910390a4505050565b60008060008085815260200190815260200160002090508060020160009054906101000a900473ffffffffffffffffffffffffffffffffffffffff1673ffffffffffffffffffffffffffffffffffffffff168373ffffffffffffffffffffffffffffffffffffffff161480610d8957508060030160008473ffffffffffffffffffffffffffffffffffffffff1673ffffffffffffffffffffffffffffffffffffffff16815260200190815260200160002060009054906101000a900460ff165b91505092915050565b6060806000606060008060008088815260200190815260200160002090506000816000018054610dc1906120f7565b905011610e03576040517f08c379a0000000000000000000000000000000000000000000000000000000008152600401610dfa90611e94565b60405180910390fd5b610e0d8733610cc9565b610e4c576040517f08c379a0000000000000000000000000000000000000000000000000000000008152600401610e4390611eb4565b60405180910390fd5b80600001816001018260020160009054906101000a900473ffffffffffffffffffffffffffffffffffffffff16836004018460050154848054610e8e906120f7565b80601f0160208091040260200160405190810160405280929190818152602001828054610eba906120f7565b8015610f075780601f10610edc57610100808354040283529160200191610f07565b820191906000526020600020905b815481529060010190602001808311610eea57829003601f168201915b50505050509450838054610f1a906120f7565b80601f0160208091040260200160405190810160405280929190818152602001828054610f46906120f7565b8015610f935780601f10610f6857610100808354040283529160200191610f93565b820191906000526020600020905b815481529060010190602001808311610f7657829003601f168201915b505050505093508180548060200260200160405190810160405280929190818152602001828054801561101b57602002820191906000526020600020905b8160009054906101000a900473ffffffffffffffffffffffffffffffffffffffff1673ffffffffffffffffffffffffffffffffffffffff1681526020019060010190808311610fd1575b50505050509150955095509550955095505091939590929450565b600080600083815260200190815260200160002090508060020160009054906101000a900473ffffffffffffffffffffffffffffffffffffffff1673ffffffffffffffffffffffffffffffffffffffff163373ffffffffffffffffffffffffffffffffffffffff16146110de576040517f08c379a00000000000000000000000000000000000000000000000000000000081526004016110d590611e54565b60405180910390fd5b6000808381526020019081526020016000206000808201600061110191906113b8565b60018201600061111191906113b8565b6002820160006101000a81549073ffffffffffffffffffffffffffffffffffffffff021916905560048201600061114891906113f8565b60058201600090556006820160006111609190611419565b50506000600160003373ffffffffffffffffffffffffffffffffffffffff1673ffffffffffffffffffffffffffffffffffffffff168152602001908152602001600020905060005b81805490508110156112ff57838282815481106111ee577f4e487b7100000000000000000000000000000000000000000000000000000000600052603260045260246000fd5b906000526020600020015414156112ec578160018380549050611211919061202f565b81548110611248577f4e487b7100000000000000000000000000000000000000000000000000000000600052603260045260246000fd5b906000526020600020015482828154811061128c577f4e487b7100000000000000000000000000000000000000000000000000000000600052603260045260246000fd5b9060005260206000200181905550818054806112d1577f4e487b7100000000000000000000000000000000000000000000000000000000600052603160045260246000fd5b600190038181906000526020600020016000905590556112ff565b80806112f790612129565b9150506111a8565b50827f91f2d4a64ed6f16c6791d415c59ac18af9356ab2eaf9595c8145c06dd938b06660405160405180910390a2505050565b82805461133e906120f7565b90600052602060002090601f01602090048101928261136057600085556113a7565b82601f1061137957805160ff19168380011785556113a7565b828001600101855582156113a7579182015b828111156113a657825182559160200191906001019061138b565b5b5090506113b4919061143a565b5090565b5080546113c4906120f7565b6000825580601f106113d657506113f5565b601f0160209004906000526020600020908101906113f4919061143a565b5b50565b5080546000825590600052602060002090810190611416919061143a565b50565b50805460008255906000526020600020908101906114379190611457565b50565b5b8082111561145357600081600090555060010161143b565b5090565b5b80821115611477576000818161146e91906113b8565b50600101611458565b5090565b600061148e61148984611f25565b611ef4565b9050808382526020820190508260005b858110156114ce57813585016114b4888261156a565b84526020840193506020830192505060018101905061149e565b5050509392505050565b60006114eb6114e684611f51565b611ef4565b90508281526020810184848401111561150357600080fd5b61150e8482856120b5565b509392505050565b6000813590506115258161224b565b92915050565b600082601f83011261153c57600080fd5b813561154c84826020860161147b565b91505092915050565b60008135905061156481612262565b92915050565b600082601f83011261157b57600080fd5b813561158b8482602086016114d8565b91505092915050565b6000602082840312156115a657600080fd5b60006115b484828501611516565b91505092915050565b6000602082840312156115cf57600080fd5b60006115dd84828501611555565b91505092915050565b600080604083850312156115f957600080fd5b600061160785828601611555565b925050602061161885828601611516565b9150509250929050565b6000806040838503121561163557600080fd5b600061164385828601611555565b925050602083013567ffffffffffffffff81111561166057600080fd5b61166c8582860161152b565b9150509250929050565b60006020828403121561168857600080fd5b600082013567ffffffffffffffff8111156116a257600080fd5b6116ae8482850161156a565b91505092915050565b600080604083850312156116ca57600080fd5b600083013567ffffffffffffffff8111156116e457600080fd5b6116f08582860161156a565b925050602083013567ffffffffffffffff81111561170d57600080fd5b6117198582860161156a565b9150509250929050565b600061172f8383611753565b60208301905092915050565b60006117478383611853565b60208301905092915050565b61175c81612063565b82525050565b61176b81612063565b82525050565b61178261177d82612063565b612172565b82525050565b600061179382611fb6565b61179d8185611ff1565b93506117a883611f81565b8060005b838110156117d95781516117c08882611723565b97506117cb83611fd7565b9250506001810190506117ac565b5085935050505092915050565b60006117f182611fc1565b6117fb8185612002565b935061180683611f91565b8060005b8381101561183757815161181e888261173b565b975061182983611fe4565b92505060018101905061180a565b5085935050505092915050565b61184d81612075565b82525050565b61185c81612081565b82525050565b600061186d82611fcc565b6118778185612013565b93506118878185602086016120c4565b6118908161222d565b840191505092915050565b60006118a682611fcc565b6118b08185612024565b93506118c08185602086016120c4565b80840191505092915050565b600081546118d9816120f7565b6118e38186612024565b945060018216600081146118fe576001811461190f57611942565b60ff19831686528186019350611942565b61191885611fa1565b60005b8381101561193a5781548189015260018201915060208101905061191b565b838801955050505b50505092915050565b6000611958601b83612013565b91507f4f6e6c7920746865206f776e65722063616e20616464207461677300000000006000830152602082019050919050565b6000611998601783612013565b91507f446f63756d656e7420616c7265616479206578697374730000000000000000006000830152602082019050919050565b60006119d8601983612013565b91507f4950465320686173682063616e6e6f7420626520656d707479000000000000006000830152602082019050919050565b6000611a18601983612013565b91507f496e76616c696420726563697069656e742061646472657373000000000000006000830152602082019050919050565b6000611a58602b83612013565b91507f446f63756d656e7420616c72656164792073686172656420776974682074686960008301527f7320726563697069656e740000000000000000000000000000000000000000006020830152604082019050919050565b6000611abe602683612013565b91507f4f6e6c7920746865206f776e65722063616e2064656c6574652074686520646f60008301527f63756d656e7400000000000000000000000000000000000000000000000000006020830152604082019050919050565b6000611b24602583612013565b91507f4f6e6c7920746865206f776e65722063616e2073686172652074686520646f6360008301527f756d656e740000000000000000000000000000000000000000000000000000006020830152604082019050919050565b6000611b8a601783612013565b91507f446f63756d656e7420646f6573206e6f742065786973740000000000000000006000830152602082019050919050565b6000611bca600d83612013565b91507f4163636573732064656e696564000000000000000000000000000000000000006000830152602082019050919050565b6000611c0a601d83612013565b91507f446f63756d656e74206e616d652063616e6e6f7420626520656d7074790000006000830152602082019050919050565b611c46816120ab565b82525050565b611c5d611c58826120ab565b612196565b82525050565b6000611c6f828461189b565b915081905092915050565b6000611c86828661189b565b9150611c928285611771565b601482019150611ca28284611c4c565b602082019150819050949350505050565b6000611cbf82846118cc565b915081905092915050565b60006020820190508181036000830152611ce481846117e6565b905092915050565b6000602082019050611d016000830184611844565b92915050565b600060a0820190508181036000830152611d218188611862565b90508181036020830152611d358187611862565b9050611d446040830186611762565b8181036060830152611d568185611788565b9050611d656080830184611c3d565b9695505050505050565b60006060820190508181036000830152611d898186611862565b90508181036020830152611d9d8185611862565b9050611dac6040830184611c3d565b949350505050565b60006020820190508181036000830152611dcd8161194b565b9050919050565b60006020820190508181036000830152611ded8161198b565b9050919050565b60006020820190508181036000830152611e0d816119cb565b9050919050565b60006020820190508181036000830152611e2d81611a0b565b9050919050565b60006020820190508181036000830152611e4d81611a4b565b9050919050565b60006020820190508181036000830152611e6d81611ab1565b9050919050565b60006020820190508181036000830152611e8d81611b17565b9050919050565b60006020820190508181036000830152611ead81611b7d565b9050919050565b60006020820190508181036000830152611ecd81611bbd565b9050919050565b60006020820190508181036000830152611eed81611bfd565b9050919050565b6000604051905081810181811067ffffffffffffffff82111715611f1b57611f1a6121fe565b5b8060405250919050565b600067ffffffffffffffff821115611f4057611f3f6121fe565b5b602082029050602081019050919050565b600067ffffffffffffffff821115611f6c57611f6b6121fe565b5b601f19601f8301169050602081019050919050565b6000819050602082019050919050565b6000819050602082019050919050565b60008190508160005260206000209050919050565b600081519050919050565b600081519050919050565b600081519050919050565b6000602082019050919050565b6000602082019050919050565b600082825260208201905092915050565b600082825260208201905092915050565b600082825260208201905092915050565b600081905092915050565b600061203a826120ab565b9150612045836120ab565b925082821015612058576120576121a0565b5b828203905092915050565b600061206e8261208b565b9050919050565b60008115159050919050565b6000819050919050565b600073ffffffffffffffffffffffffffffffffffffffff82169050919050565b6000819050919050565b82818337600083830152505050565b60005b838110156120e25780820151818401526020810190506120c7565b838111156120f1576000848401525b50505050565b6000600282049050600182168061210f57607f821691505b60208210811415612123576121226121cf565b5b50919050565b6000612134826120ab565b91507fffffffffffffffffffffffffffffffffffffffffffffffffffffffffffffffff821415612167576121666121a0565b5b600182019050919050565b600061217d82612184565b9050919050565b600061218f8261223e565b9050919050565b6000819050919050565b7f4e487b7100000000000000000000000000000000000000000000000000000000600052601160045260246000fd5b7f4e487b7100000000000000000000000000000000000000000000000000000000600052602260045260246000fd5b7f4e487b7100000000000000000000000000000000000000000000000000000000600052604160045260246000fd5b6000601f19601f8301169050919050565b60008160601b9050919050565b61225481612063565b811461225f57600080fd5b50565b61226b81612081565b811461227657600080fd5b5056fea264697066735822122087a586f477aea442538f643168bade7977489152a9f2ca5e784ced2acbd6a87e64736f6c63430008000033",
  "linkReferences": {},
  "deployedLinkReferences": {}
}